:100000000C942E010C9429060C9402060C945601B3
:100010000C9456010C9456010C9456010C94560104
:100020000C9456010C9456010C9456010C945601F4
:100030000C9456010C9456010C9456010C945601E4
:100040000C9479070C9456010C9476060C94500687
:100050000C9456010C9456010C9456010C945601C4
:100060000C9456010C9456017B1384138D139F132B
:10007000A113AA13AA13204E6574776F726B3A20EE
:10008000003433334D487A0020467265713A2000BF
:100090004E6F64653A20004F70656E456E657267FD
:1000A000794D6F6E69746F722E6F72670055736948
:1000B0006E672052464D3639435720526164696F4E
:1000C00000656D6F6E54782056332E3220262056F0
:1000D000332E342043543132333420566F6C7461E4
:1000E00067652033205068617365206578616D70A5
:1000F0006C650020282D30290020004F4B20000087
:10010000000000240027002A00000000002500282D
:10011000002B00000000080002010000030407009B
:1001200000000000000000005EBCE2613FDD83C211
:100130009C7E20A3FD1F419DC3217FFCA2401E5F2A
:1001400001E3BD3E6082DC237D9FC1421CFEA0E135
:10015000BF5D0380DE3C62BEE0025CDF81633D7C0C
:1001600022C09E1D43A1FF4618FAA427799BC5848F
:10017000DA3866E5BB5907DB856739BAE4065819F2
:1001800047A5FB7826C49A653BD987045AB8E6A7E9
:10019000F91B45C6987A24F8A6441A99C7257B3AD4
:1001A0006486D85B05E7B98CD2306EEDB3510F4E43
:1001B00010F2AC2F7193CD114FADF3702ECC92D3C2
:1001C0008D6F31B2EC0E50AFF1134DCE90722C6D9D
:1001D00033D18F0C52B0EE326C8ED0530DEFB1F0A4
:1001E000AE4C1291CF2D73CA947628ABF5174908FF
:1001F00056B4EA6937D58B5709EBB536688AD4957A
:10020000CB2977F4AA4816E9B7550B88D6346A2B60
:100210007597C94A14F6A8742AC896154BA9F7B65B
:10022000E80A54D7896B3500000000230026002916
:10023000000404040404040404020202020202038F
:100240000303030303010204081020408001020499
:1002500008102001020408102000111411241FBEF0
:10026000CFEFD8E0DEBFCDBF11E0A0E0B1E0E0E02D
:10027000FFE202C005900D92A236B107D9F723E044
:10028000A2E6B1E001C01D92A431B207E1F711E08E
:10029000CEE2D1E004C02197FE010E94C614CD3207
:1002A000D107C9F70E94C3070C947E170C94000075
:1002B0000895FC0190810180F281E02D892F8095C5
:1002C00060FF12C0F8942281822382838181892B6E
:1002D0008183A3E2B0E01197F1F78281982B92839A
:1002E000789487ED90E011C0F89422818223828374
:1002F0008181892B8183AFEFB0E01197F1F7828183
:10030000982B928378948FE090E00197F1F708950D
:10031000009769F0FC0101900020E9F73197AF01E7
:10032000481B590BBC0188E492E00C94B50480E0B2
:1003300090E008950F931F93CF93DF938C01C0E05B
:10034000D0E0F801EC0FFD1F6491662371F0E0919D
:100350004802F09149020190F081E02D88E492E09A
:100360000995892B11F02196ECCFCE01DF91CF9129
:100370001F910F9108958F929F92AF92BF920F930A
:100380001F93CF93DF93CDB7DEB7A1970FB6F89445
:10039000DEBF0FBECDBF19A2423008F44AE08E0185
:1003A0000F5D1F4F842E912CA12CB12CA50194011F
:1003B0000E94A414E62FB901CA0101501109EA30C4
:1003C00014F4E05D01C0E95CD801EC93232B242BED
:1003D000252B61F7C8010E948801A1960FB6F894F9
:1003E000DEBF0FBECDBFDF91CF911F910F91BF90A8
:1003F000AF909F908F900895CF92DF92EF92FF92EF
:10040000CF93DF936B017C01E0914802F0914902A8
:100410000190F081E02D6DE288E492E00995EC0115
:1004200066277727CB016C197D098E099F094AE061
:100430000E94BB018C0F9D1FDF91CF91FF90EF9029
:10044000DF90CF900895CF93DF930E949A01EC0143
:1004500080E391E00E9488018C0F9D1FDF91CF9176
:100460000895DC01E0E0615038F08D91E827F0E07C
:10047000E95DFE4FE491F7CF8E2F0895CF92DF9282
:10048000EF92FF920F931F93CF93DF931F92CDB7FD
:10049000DEB76C01E62E08E010E0FF24F39461E083
:1004A0008F2D8E2109F460E0C60149830E94590115
:1004B000FF0C0150110949810115110581F7411106
:1004C00015C0F894D6011196ED91FC911297918187
:1004D0008C918095892381831196ED91FC911297DF
:1004E00092818C9180958923828378940F90DF91FB
:1004F000CF911F910F91FF90EF90DF90CF900895D3
:10050000CF92DF92EF92FF920F931F93CF93DF93DF
:100510001F92CDB7DEB78C01F62E40E065E57983FA
:100520000E943E02CF2C7981D72E760188E0E80E1A
:10053000F11CF60161916F0140E0C8010E943E028A
:10054000CE14DF04B1F70F90DF91CF911F910F917F
:10055000FF90EF90DF90CF900895FC019081018093
:10056000F281E02DF8948181892B81832281892F6A
:10057000809528232283A7E0B0E01197F1F721812D
:1005800082238183A3E2B0E01197F1F78081789410
:10059000EFECF0E03197F1F7982381E009F480E087
:1005A0000895FC0190810180F281E02DF894818111
:1005B000292F20958223818378948DE743E050E0B2
:1005C000815021F1DA011197F1F730813923C1F31C
:1005D000F8948281822382838181892B818378941C
:1005E000ABE7B7E01197F1F7F894818128232183D5
:1005F000A3E1B1E01197F1F78081982381E009F040
:1006000080E07894E3E6F6E03197F1F708958F9271
:100610009F92AF92BF92CF92DF92EF92FF920F9391
:100620001F93CF93DF938C01EB018091EA029091AD
:10063000EB020E94D102882309F43DC0B8018091E9
:10064000EA029091EB020E94800240E06EEB809102
:10065000EA029091EB020E943E028E015E0189E067
:10066000A80EB11C8090EA029090EB0288E0C82EA0
:10067000D12CEE24E394F12CC4010E94AD0281112F
:10068000FE28EE0CE1E0CE1AD108B1F7F801F192A4
:100690008F01EA15FB0531F78091EA029091EB0298
:1006A0000E94D102813039F468E0CE010E9431020B
:1006B00091E02885821390E0892FDF91CF911F91DF
:1006C0000F91FF90EF90DF90CF90BF90AF909F90F1
:1006D0008F900895CF93DF93CDB7DEB729970FB6EC
:1006E000F894DEBF0FBECDBFFC0120812031D1F0D8
:1006F000BE016F5F7F4F0E940703882389F08D81C1
:100700008F3361F020F48F3159F489E00CC08F35BC
:1007100019F08F3739F004C08BE005C08AE003C0C0
:1007200080E001C08CE029960FB6F894DEBF0FBEC2
:10073000CDBFDF91CF910895AF92BF92CF92DF925C
:10074000EF92FF920F931F93CF93DF931F92CDB73A
:10075000DEB75C01D62EE72EFC018585811105C030
:10076000C5010E94D102811106C0F50113861586CC
:10077000148680E065C040E060EFC5010E943E0243
:1007800001E0F12CC12C11E0C5010E94AD02682FDF
:10079000C50169830E94AD026981613019F481301D
:1007A000B9F433C04F2D50E068131BC0F5018385A9
:1007B000181730F4E40FF51F8381802349F402C039
:1007C000181731F060E0193058F4F501148708C0AB
:1007D000F501EF0DF11D8381802B838361E009C05A
:1007E000C12EF501E40FF51F9381802F8095892399
:1007F0008383C5010E9459011F5F000F11F4F39418
:1008000001E0F7E0FF1508F0BFCF113408F4ADCFD9
:10081000F501C386C11002C081E08587F50183819F
:10082000882309F4A2CFD5011396ED2DFE2D950155
:10083000255F3F4F8D918193A217B307D9F781E0D0
:100840000F90DF91CF911F910F91FF90EF90DF906C
:10085000CF90BF90AF90089590E0FC01ED5EFE4F09
:100860003491FC01EB5BFD4F2491FC01EF5CFD4FEB
:10087000E491EE2309F43BC0332339F1333091F096
:1008800038F43130A9F0323001F584B58F7D12C0D3
:10089000373091F03830A1F03430B9F480918000D5
:1008A0008F7D03C0809180008F77809380000DC082
:1008B00084B58F7784BD09C08091B0008F7703C065
:1008C0008091B0008F7D8093B000F0E0EE0FFF1FAD
:1008D000E75FFE4FA591B4918FB7F894EC91611149
:1008E00003C020952E2301C02E2B2C938FBF08957B
:1008F000CF93DF9390E0FC01EB5BFD4F2491FC0173
:10090000EF5CFD4F8491882361F190E0880F991F7F
:10091000FC01E150FF4FC591D491FC01E75FFE4F10
:10092000A591B491611109C09FB7F8948881209571
:1009300082238883EC912E230BC0623061F49FB731
:10094000F8943881822F809583238883EC912E2B15
:100950002C939FBF06C08FB7F894E8812E2B288375
:100960008FBFDF91CF9108950895CF92DF92EF92DC
:10097000FF920F931F93CF93DF936C017A018B014A
:10098000C0E0D0E0CE15DF0589F0D8016D918D0172
:10099000D601ED91FC910190F081E02DC601099501
:1009A000892B11F47E0102C02196ECCFC701DF91A3
:1009B000CF911F910F91FF90EF90DF90CF9008950E
:1009C000089580E090E00895FC01538D448D252F1B
:1009D00030E0842F90E0821B930B541710F0CF96D9
:1009E000089501970895FC01918D828D981761F00B
:1009F000828DDF01A80FB11D5D968C91928D9F5F56
:100A00009F73928F90E008958FEF9FEF0895FC0100
:100A1000918D828D981731F0828DE80FF11D858DB3
:100A200090E008958FEF9FEF0895FC01918D228D46
:100A3000892F90E0805C9F4F821B91098F739927CB
:100A4000089588E492E00E94150521E0892B09F4BD
:100A500020E0822F0895FC01848DDF01A80FB11DD5
:100A6000A35ABF4F2C91848D90E001968F739927E4
:100A7000848FA689B7892C93A089B1898C918064D1
:100A80008C93938D848D981306C00288F389E02D92
:100A900080818F7D80830895EF92FF920F931F9343
:100AA000CF93DF93EC0181E0888F9B8D8C8D981321
:100AB00005C0E889F989808185FD24C0F62E0B8D5B
:100AC00010E00F5F1F4F0F731127E02E8C8DE8127F
:100AD0000CC00FB607FCFACFE889F989808185FF41
:100AE000F5CFCE010E942B05F1CF8B8DFE01E80FD3
:100AF000F11DE35AFF4FF0820B8FEA89FB89808159
:100B0000806207C0EE89FF896083E889F989808166
:100B10008064808381E090E0DF91CF911F910F91FD
:100B2000FF90EF900895CF93DF93EC01888D882399
:100B3000C9F0EA89FB89808185FD05C0A889B9894A
:100B40008C9186FD0FC00FB607FCF5CF808185FF25
:100B5000F2CFA889B9898C9185FFEDCFCE010E9493
:100B60002B05E7CFDF91CF91089580E090E0892BAE
:100B700029F00E94210581110C94000008958EBD7A
:100B800000000DB407FEFDCF8EB508950E947917C1
:100B9000F8948CB5837F8CBD8CB58F7D8CBD8CB566
:100BA0008C7F8CBD8DB58E7F8DBD60E08AE00C940E
:100BB0002C040F931F930E946D070091070310915F
:100BC00008032091090330910A03DC01CB01801B4B
:100BD000910BA20BB30B8F369105A105B10528F03F
:100BE000809106038F5F809306030E946D076093D8
:100BF0000703709308038093090390930A031F91DE
:100C00000F9108951F920F920FB60F9211242F93F8
:100C10003F934F935F936F937F938F939F93AF9384
:100C2000BF93EF93FF93E0910201F09103010995C7
:100C3000FF91EF91BF91AF919F918F917F916F91B4
:100C40005F914F913F912F910F900FBE0F901F908A
:100C500018951F920F920FB60F9211242F933F9366
:100C60004F935F936F937F938F939F93AF93BF93B4
:100C7000EF93FF93E0910001F09101010995FF913D
:100C8000EF91BF91AF919F918F917F916F915F9104
:100C90004F913F912F910F900FBE0F901F9018957D
:100CA0001F920F920FB60F9211242F933F934F93E1
:100CB0005F936F937F938F939F93AF93BF93EF93C4
:100CC000FF9388E492E00E942B05FF91EF91BF9182
:100CD000AF919F918F917F916F915F914F913F91D4
:100CE0002F910F900FBE0F901F9018951F920F928B
:100CF0000FB60F9211242F938F939F93EF93FF932F
:100D0000E0915802F09159028081E0915E02F091E9
:100D10005F0282FD12C09081809161028F5F8F73AC
:100D200020916202821751F0E0916102F0E0E85BED
:100D3000FD4F958F8093610201C08081FF91EF91FB
:100D40009F918F912F910F900FBE0F901F9018952C
:100D50001F93CF93DF931F92CDB7DEB789830E9495
:100D6000C80589818F770E94BF0580E00E94BF057A
:100D7000182F61E08AE00E942C047894812F0F9054
:100D8000DF91CF911F910895CF93DF9300D0CDB71E
:100D9000DEB76A8389830E94C805898180680E94C2
:100DA000BF056A81862F0E94BF0561E08AE00E942C
:100DB0002C0478940F900F90DF91CF91089586279F
:100DC000682F62956827062E669566956025062E23
:100DD000669560256770082E892F6695079467953C
:100DE000902D8627069467959025862708953FB70E
:100DF000F8948091100390911103A0911203B09187
:100E0000130326B5A89B05C02F3F19F00196A11D1D
:100E1000B11D3FBFBA2FA92F982F8827820F911D90
:100E2000A11DB11DBC01CD0142E0660F771F881FD7
:100E3000991F4A95D1F708958E3008F08E5087702B
:100E4000806480937C0080917A00806480937A0033
:100E500080917A0086FDFCCF809178002091790006
:100E600090E0922B08958F929F92AF92BF92CF9273
:100E7000DF92EF92FF926B017C010E94F7064B011B
:100E80005C01C114D104E104F104F1F00E94F70601
:100E9000DC01CB0188199909AA09BB09883E934056
:100EA000A105B10570F321E0C21AD108E108F108EB
:100EB00088EE880E83E0981EA11CB11CC114D104D9
:100EC000E104F10419F7DDCFFF90EF90DF90CF90B0
:100ED000BF90AF909F908F9008952FB7F894609136
:100EE0000C0370910D0380910E0390910F032FBF9F
:100EF00008951F920F920FB60F9211242F933F93D4
:100F00008F939F93AF93BF9380910C0390910D03A8
:100F1000A0910E03B0910F0330910B0323E0230F38
:100F20002D3720F40196A11DB11D05C026E8230F21
:100F30000296A11DB11D20930B0380930C03909387
:100F40000D03A0930E03B0930F03809110039091B3
:100F50001103A0911203B09113030196A11DB11DBD
:100F60008093100390931103A0931203B093130383
:100F7000BF91AF919F918F913F912F910F900FBE95
:100F80000F901F901895CF93DF93CDB7DEB7C6595A
:100F9000D1090FB6F894DEBF0FBECDBF789484B5EB
:100FA000826084BD84B5816084BD85B5826085BD65
:100FB00085B5816085BD80916E00816080936E00F3
:100FC00010928100809181008260809381008091E5
:100FD0008100816080938100809180008160809396
:100FE00080008091B10084608093B1008091B00056
:100FF00081608093B00080917A00846080937A0051
:1010000080917A00826080937A0080917A0081607A
:1010100080937A0080917A00806880937A001092A1
:10102000C100E0915802F091590202E00083E09182
:101030005402F09155021082E0915602F09157024D
:101040008FEC808310926002E0915C02F0915D026F
:1010500016E01083E0915A02F0915B02808180617A
:101060008083E0915A02F0915B02808188608083E6
:10107000E0915A02F0915B02808180688083E09168
:101080005A02F0915B0280818F7D808380E291E043
:101090000E94880188E492E00E949305E0915A0240
:1010A000F0915B0280818F7E8083E0915A02F09103
:1010B0005B028081877F8083E0915A02F0915B021E
:1010C00080818F778083E0915A02F0915B0280816A
:1010D0008F7D80838091620280936102E09158024B
:1010E000F09159020083E0915402F0915502108270
:1010F000E0915602F091570280E1808310926002E5
:10110000E0915C02F0915D021083E0915A02F0914F
:101110005B02808180618083E0915A02F0915B02E2
:10112000808188608083E0915A02F0915B02808127
:1011300080688083E0915A02F0915B0280818F7D0C
:10114000808399E288E10FB6F894A89580936000B7
:101150000FBE9093600081EC90E00E9423028DEA24
:1011600090E00E94230287E990E00E94230280E938
:1011700090E00E949A014AE06EE070E080E090E02A
:101180000E94BB0188E890E00E949A0181E890E00B
:101190000E949A0186E790E00E949A014AE062ED7F
:1011A00070E080E090E00E94BB0180E391E00E944B
:1011B000880161E08AE00E942C0461E08AE00E94DC
:1011C00078041FB7F89480916201811127C0EBE386
:1011D000F2E08491EFE4F2E09491E82FF0E0EE0F7A
:1011E000FF1FE150FF4FA591B491EC91E92321F449
:1011F00061E08AE00E942C0461E08AE00E947804A9
:101200008CB580618CBD8CB580648CBD61E08DE057
:101210000E94780461E08BE00E9478048091620172
:101220008F5F809362011FBF8CB58F7D8CBD8CB5A5
:10123000837F8CBD8CB58C7F81608CBD8DB58160CA
:101240008DBD6AEA8FE20E94C4068FE20E94A80662
:101250008A3AB9F765E58FE20E94C4068FE20E94E0
:10126000A8068535B9F764E081E00E94C40660E015
:1012700082E00E94C40662E083E00E94C4066AE83D
:1012800084E00E94C40665E085E00E94C40663EC29
:1012900086E00E94C4066CE687E00E94C40660E80F
:1012A00088E00E94C40660E089E00E94C40669E903
:1012B00081E10E94C4066CE28EE10E94C40660E8EF
:1012C00085E20E94C40663E086E20E94C40660E0F4
:1012D00088E20E94C40668E88EE20E94C4066DE2BD
:1012E0008FE20E94C40662ED80E30E94C40660E0C3
:1012F00087E30E94C40680917E008F6380937E0006
:1013000080917F00836080937F0061E086E00E948F
:10131000780461E086E00E942C0462E083E00E9491
:101320007804109213021092140210921502109277
:10133000160281E00E941C07892B19F081E080933E
:10134000BE0182E00E941C07892B19F081E0809386
:10135000B10183E00E941C07892B19F081E0809382
:10136000A40184E00E941C07892B19F081E080937E
:10137000970160E086E00E942C0461E083E10E9416
:10138000780461E083E10E942C0462E370E080E075
:1013900090E00E943307E091EA02F091EB0213869D
:1013A00015861486DF011B9633961E92AE17BF0773
:1013B000E1F71092E90211E0BE016F5F7F4F80916B
:1013C000EA029091EB020E949C03882309F449C031
:1013D00067E0CE0101960E94310298858913ECCF17
:1013E0008091E502811126C08091EA029091EB0282
:1013F0000E94D102BE016F5F7F4F8091EA029091FF
:10140000EB020E94800240E064EB8091EA0290913E
:10141000EB020E943E028091EA029091EB020E9450
:10142000AD02082F8091EA029091EB020E94D10256
:101430000023A9F10091E602CE0101960E946A0301
:10144000801718F48091E60204C0CE0101960E9434
:101450006A038093E6028091E9028F5F8093E9023C
:10146000ABCF1092E7028091E90280934702873068
:1014700018F086E08093470210E0009147021017B1
:1014800088F428E0129FB0011124695E7D4F88EF37
:1014900092E00E949C03882329F01F5FEECF1093F7
:1014A000E502C8CF82EC9BE090930802809307028C
:1014B00090930A028093090290930C0280930B028E
:1014C00090930E0280930D029093100280930F026E
:1014D000909312028093110260E083E10E942C0439
:1014E000002369F083E391E00E9488016091470244
:1014F00070E080E090E04AE00E94BB0104C08CE410
:1015000091E00E94880180E391E00E94880189EDCA
:1015100095E09093030180930201809169008C60B3
:1015200080936900E99A64E170E080E090E00E94B5
:101530003307AE014F5F5F4F1A0152E2520DCB5697
:10154000DF4F5883C559D0408091BF01811117C02A
:101550008091BE01811104C080E090E0DC0104C0F4
:1015600080E090E0A0E0B4E48093BA019093BB01E6
:10157000A093BC01B093BD0181E08093BF01809135
:10158000B201811117C08091B101811104C080E0C6
:1015900090E0DC0104C080E090E0A0E0B4E480933F
:1015A000AD019093AE01A093AF01B093B00181E083
:1015B0008093B2018091A501811117C08091A4018F
:1015C000811104C080E090E0DC0104C080E090E084
:1015D000A0E0B4E48093A0019093A101A093A201A4
:1015E000B093A30181E08093A501809198018111BE
:1015F00017C080919701811104C080E090E0DC0168
:1016000004C080E090E0A0E0B4E480939301909364
:101610009401A0939501B093960181E08093980185
:101620000E946D076B017C0180E00E941C07C1577E
:10163000DF4F99838883CF58D0400E946D07DC012B
:10164000CB018C199D09AE09BF09813D9740A105C9
:10165000B10508F468C00E946D07CF56DF4F68835C
:1016600079838A839B83C159D040E8961CAE1DAE16
:101670001EAE1FAEE897E4961CAE1DAE1EAE1FAEAA
:10168000E497C458DF4F188219821A821B82CC5704
:10169000D040EC961CAE1DAE1EAE1FAEEC97E09691
:1016A0001CAE1DAE1EAE1FAEE097AC961CAE1DAEBE
:1016B0001EAE1FAEAC97A8961CAE1DAE1EAE1FAEE2
:1016C000A897A4961CAE1DAE1EAE1FAEA497A09602
:1016D0001CAE1DAE1EAE1FAEA097CE57DF4F1882B8
:1016E000C258D040CD57DF4F1882C358D040CC5796
:1016F000DF4F1882C458D040CB57DF4F1882C558EF
:10170000D040C058DF4F19821882C058D0402EEF09
:101710003FEF6C963FAF2EAF6C9763961FAE63970B
:101720000EE010E0D2C3C157DF4F88819981CF58B6
:10173000D040815891408F3F910508F075CF8BCFF5
:1017400080E00E941C072C0181E00E941C073C01E4
:1017500082E00E941C0768969FAF8EAF689783E077
:101760000E941C07CA57DF4F99838883C658D04010
:1017700084E00E941C07C657DF4F99838883CA58AC
:10178000D040B201052C000C880B990B0E94FC156F
:101790006B017C018090040190900501A0900601EE
:1017A000B0900701A50194010E94E01420E030E010
:1017B00040E85AE30E94B1169B01AC01C501B40197
:1017C0000E94E1149B01AC01609304017093050138
:1017D0008093060190930701C701B6010E94E014AF
:1017E00023966FAF239727967FAF27972B968FAFC0
:1017F0002B972F969FAF2F97C8016EE070E00E9445
:101800009014FC01EE0FFF1FEE0FFF1FE20DF31D02
:1018100023968FAD239727969FAD27972B96AFAD35
:101820002B972F96BFAD2F9780839183A283B3838D
:1018300031E0C257DF4F3883CE58D040C157DF4F19
:1018400048815981CF58D040441555052CF0C257D6
:10185000DF4F1882CE58D04063965FAD6397C25772
:10186000DF4F8881CE58D040581709F44DC06C9690
:101870004EAD5FAD6C97452BF1F5C058DF4F198227
:101880001882C058D040E8961CAE1DAE1EAE1FAEEA
:10189000E897E4961CAE1DAE1EAE1FAEE497C4588A
:1018A000DF4F188219821A821B82CC57D040EC96E7
:1018B0001CAE1DAE1EAE1FAEEC97E0961CAE1DAE6C
:1018C0001EAE1FAEE097AC961CAE1DAE1EAE1FAE98
:1018D000AC97A8961CAE1DAE1EAE1FAEA897A496E0
:1018E0001CAE1DAE1EAE1FAEA497A0961CAE1DAEC4
:1018F0001EAE1FAEA0976C968EAD9FAD6C970196F5
:101900006C969FAF8EAF6C97B301770C880B990BD9
:101910000E94FC156B017C018090BA019090BB0184
:10192000A090BC01B090BD01A50194010E94E014FB
:1019300020E030E040E85AE30E94B1169B01AC0180
:10194000C501B4010E94E1149B01AC016093BA018E
:101950007093BB018093BC019093BD01C701B60198
:101960000E94E01466966CAF7DAF8EAF9FAF669716
:101970006896AEADBFAD6897BD01BB0F880B990BE4
:101980000E94FC156B017C018090AD019090AE012E
:10199000A090AF01B090B001A50194010E94E014A5
:1019A00020E030E040E85AE30E94B1169B01AC0110
:1019B000C501B4010E94E1149B01AC016093AD012B
:1019C0007093AE018093AF019093B001C701B6014F
:1019D0000E94E0146A966CAF7DAF8EAF9FAF6A979E
:1019E000CA57DF4FE881F981C658D040BF01FF0FC9
:1019F000880B990B0E94FC156B017C018090A00163
:101A00009090A101A090A201B090A301A501940122
:101A10000E94E01420E030E040E85AE30E94B11652
:101A20009B01AC01C501B4010E94E1149B01AC0112
:101A30006093A0017093A1018093A2019093A301F0
:101A4000C701B6010E94E0142B013C01C657DF4FCD
:101A500028813981CA58D040B901330F880B990BBE
:101A60000E94FC156B017C01809093019090940181
:101A7000A0909501B0909601A50194010E94E014F8
:101A800020E030E040E85AE30E94B1169B01AC012F
:101A9000C501B4010E94E1149B01AC016093930164
:101AA000709394018093950190939601C701B601BC
:101AB0000E94E0146B017C0123962FAD239727969B
:101AC0003FAD27972B964FAD2B972F965FAD2F9756
:101AD00023966FAD239727967FAD27972B968FADD3
:101AE0002B972F969FAD2F970E94B1169B01AC01AB
:101AF000A0966CAD7DAD8EAD9FADA0970E94E11418
:101B0000A0966CAF7DAF8EAF9FAFA09766962CADC1
:101B10003DAD4EAD5FAD6697CA01B9010E94B116E9
:101B20009B01AC01A4966CAD7DAD8EAD9FADA4972D
:101B30000E94E114A4966CAF7DAF8EAF9FAFA497C7
:101B40006A962CAD3DAD4EAD5FAD6A97CA01B90145
:101B50000E94B1169B01AC01A8966CAD7DAD8EAD17
:101B60009FADA8970E94E114A8966CAF7DAF8EAF91
:101B70009FAFA897A3019201C301B2010E94B116C1
:101B80009B01AC01AC966CAD7DAD8EAD9FADAC97BD
:101B90000E94E114AC966CAF7DAF8EAF9FAFAC9757
:101BA000A7019601C701B6010E94B1169B01AC01C5
:101BB000E0966CAD7DAD8EAD9FADE0970E94E114D7
:101BC000E0966CAF7DAF8EAF9FAFE097CE57DF4F03
:101BD0002881C258D040CD57DF4F3881C358D040FC
:101BE000CC57DF4F4881C458D040CB57DF4F588186
:101BF000C558D04023966FAD239727967FAD279782
:101C00002B968FAD2B972F969FAD2F970E94E014A8
:101C1000C657DF4F688379838A839B83CA58D04035
:101C2000C80107976EE070E00E949014FC01EE0F6F
:101C3000FF1FEE0FFF1FE20DF31D80819181A28136
:101C4000B381CA57DF4F88839983AA83BB83C65861
:101C5000D040C8010D976EE070E00E949014FC0126
:101C6000EE0FFF1FEE0FFF1FE20DF31D808091802E
:101C7000A280B380C657DF4F288139814A815B81BA
:101C8000CA58D040CE57DF4F6881C258D040CD5798
:101C9000DF4F7881C358D040CC57DF4F8881C4587C
:101CA000D040CB57DF4F9881C558D0400E94E114F7
:101CB00066962CAD3DAD4EAD5FAD66970E94B116F8
:101CC0009B01AC01EC966CAD7DAD8EAD9FADEC97FC
:101CD0000E94E114EC966CAF7DAF8EAF9FAFEC9796
:101CE000C80106976EE070E00E949014FC01EE0FB0
:101CF000FF1FEE0FFF1FE20DF31DCA57DF4F2881B4
:101D000039814A815B81C658D0406081718182816E
:101D100093810E94E0142FE135E84BE65FE30E94D7
:101D2000B1169B01AC01CA57DF4F688179818A8166
:101D30009B81C658D0400E94E1146A962CAD3DADFF
:101D40004EAD5FAD6A970E94B1169B01AC01C458BD
:101D5000DF4F688179818A819B81CC57D0400E9476
:101D6000E114C458DF4F688379838A839B83CC57FF
:101D7000D040C8010C976EE070E00E949014FC0106
:101D8000EE0FFF1FEE0FFF1FE20DF31DA5019401E3
:101D900060817181828193810E94E01423E333E3A7
:101DA00043E75FE30E94B1169B01AC01C501B4019A
:101DB0000E94E114A30192010E94B1169B01AC01A3
:101DC000E4966CAD7DAD8EAD9FADE4970E94E114BD
:101DD000E4966CAF7DAF8EAF9FAFE4972AE939E907
:101DE00049E95FE3C657DF4F688179818A819B812A
:101DF000CA58D0400E94B1169B01AC01CE57DF4FAC
:101E00006881C258D040CD57DF4F7881C358D04049
:101E1000CC57DF4F8881C458D040CB57DF4F9881D3
:101E2000C558D0400E94E114A70196010E94B11646
:101E30009B01AC01E8966CAD7DAD8EAD9FADE89792
:101E40000E94E114E8966CAF7DAF8EAF9FAFE8972C
:101E5000C058DF4FA881B981C058D0401196C058F2
:101E6000DF4FB983A883C058D0400F5F1F4F6C96D7
:101E7000EEADFFAD6C977697F4F52396FFAD239703
:101E8000CE57DF4FF883C258D04027962FAD279703
:101E9000CD57DF4F2883C358D0402B963FAD2B97AB
:101EA000CC57DF4F3883C458D0402F964FAD2F9773
:101EB000CB57DF4F4883C558D040C257DF4F5881BA
:101EC000CE58D04063965FAF63970E946D07DC01E8
:101ED000CB01CF56DF4F288139814A815B81C159BF
:101EE000D040821B930BA40BB50B803D9740A105FE
:101EF000B10508F425CCC058DF4F28813981C0587E
:101F0000D040B901330F880B990B0E94FC156B016F
:101F10007C019B01AC01A0966CAD7DAD8EAD9FADFB
:101F2000A0970E9452150E94241729EE39E04EE432
:101F30005FE30E94B1164B015C016093E90170936D
:101F4000EA018093EB019093EC01A7019601A4961E
:101F50006CAD7DAD8EAD9FADA4970E9452150E94D1
:101F6000241721E63FE147E95EE30E94B116269679
:101F70006CAF7DAF8EAF9FAF269760938F0170934C
:101F800090018093910190939201A7019601A896E8
:101F90006CAD7DAD8EAD9FADA8970E9452150E948D
:101FA000241721E63FE147E95EE30E94B1162A9635
:101FB0006CAF7DAF8EAF9FAF2A9760938B0170930C
:101FC0008C0180938D0190938E01A7019601AC96B0
:101FD0006CAD7DAD8EAD9FADAC970E9452150E9449
:101FE000241721E63FE147E95EE30E94B1162E96F1
:101FF0006CAF7DAF8EAF9FAF2E97609387017093CC
:1020000088018093890190938A01A7019601E09647
:102010006CAD7DAD8EAD9FADE0970E9452150E94D4
:1020200024172EE83EE940E65DE30E94B116629671
:102030006CAF7DAF8EAF9FAF62976093830170935B
:102040008401809385019093860123E332E443E782
:102050005EE3EC966CAD7DAD8EAD9FADEC970E94CE
:10206000B116A70196010E9452152B013C01609305
:10207000F9017093FA018093FB019093FC0126967D
:102080002CAD3DAD4EAD5FAD2697C501B4010E94AC
:10209000B1169B01AC0160937F0170938001809326
:1020A000810190938201C301B2010E945215609395
:1020B0007B0170937C0180937D0190937E0123E3EB
:1020C00032E443E75EE3C458DF4F688179818A8157
:1020D0009B81CC57D0400E94B116A70196010E9467
:1020E00052152B013C016093F5017093F60180932A
:1020F000F7019093F8012A962CAD3DAD4EAD5FAD42
:102100002A97C501B4010E94B1169B01AC016093EE
:102110007701709378018093790190937A01C301DC
:10212000B2010E9452156093730170937401809301
:1021300075019093760123E332E443E75EE3E4968E
:102140006CAD7DAD8EAD9FADE4970E94B116A70139
:1021500096010E9452152B013C016093F10170938E
:10216000F2018093F3019093F4012E962CAD3DADD6
:102170004EAD5FAD2E97C501B4010E94B1169B0113
:10218000AC0160936F017093700180937101909323
:102190007201C301B2010E94521560936B017093EA
:1021A0006C0180936D0190936E0128E438EC44E358
:1021B0005DE3E8966CAD7DAD8EAD9FADE8970E9476
:1021C000B116A70196010E9452156B017C01609324
:1021D000ED017093EE018093EF019093F001629610
:1021E0002CAD3DAD4EAD5FAD6297C501B4010E940F
:1021F000B1169B01AC0160936701709368018093F5
:10220000690190936A01C701B6010E94521560935B
:1022100063017093640180936501909366017090EF
:102220004702772009F495C161E083E10E942C0404
:1022300062E370E080E090E00E943307B7E1EB2EAC
:10224000B2E0FB2E8701A12CB12C872C912C8FE5BD
:10225000482E9BE0592EA814B9040CF0BFC0C80149
:102260000E946A038B3009F4B3C0B101C8010E9417
:102270000703882309F4ACC0D8018C91803109F49C
:10228000A7C04D828091EA029091EB020E94D10298
:10229000B8018091EA029091EB020E94800240E036
:1022A0006EE48091EA029091EB020E943E0240E0CF
:1022B0006B818091EA029091EB020E943E0240E025
:1022C0006C818091EA029091EB020E943E02F8013B
:1022D0008081803141F040E06D818091EA029091EF
:1022E000EB020E943E028091EA029091EB020E9472
:1022F000D102B8018091EA029091EB020E94800223
:102300004091E50268E48091EA029091EB020E941C
:102310003E0264E170E080E090E00E94330780912B
:10232000E502882331F06AE070E080E090E00E94EE
:1023300033078091EA029091EB020E94D1028091D2
:10234000E6025092E6028C3008F442C0C12CD12C37
:102350008091E90290E0C816D906D4F56C2CE09182
:10236000EA02F091EB02138615861486DF011B96B4
:1023700033961E92AE17BF07E1F720E0BE01675CFF
:102380007F4F8091EA029091EB02CA56DF4F28837B
:10239000C659D0400E949C03CA56DF4F2881C659B7
:1023A000D040811122C26090E602CE01C9960E94FF
:1023B0006A03861518F48091E60204C0CE01C9961E
:1023C0000E946A038093E602FFEFCF1ADF0AC0CFB4
:1023D0002FEFA21AB20A085F1F4F3DCF8091EA0289
:1023E0009091EB020E94D10240E06CEC8091EA02F5
:1023F0009091EB020E943E024091E50264E48091DC
:10240000EA029091EB020E943E028091E70288234B
:10241000A9F0E091E602E950E33040F4F0E0EE0F7D
:10242000FF1FE85FFE4F6081718102C06EEE72E0B7
:10243000072E000C880B990B0E94330767E771E0A9
:1024400080E090E00E94330707E012E0D12CB10158
:10245000C7010E940703882361F1698138E0639F07
:10246000B00111248A81282F30E0322F2227330F28
:10247000330F330F262B372BD7018C918031E1F4AA
:10248000688570E08F81FB01E81BF109CF0196950B
:10249000982F8827979587950E949014605171090D
:1024A000207F53E0220F331F5A95E1F7620F731F0D
:1024B00004C060E874EE01C0B9016138F4EE7F0732
:1024C000ACF1072E000C880B990B0E94FC1520E044
:1024D00030E040E05CE30E94B1164B015C0120E07B
:1024E00030E04EEF52EC0E944D158823F9F020E0C9
:1024F00030E04AEF52E4C501B4010E94AC1687FFF8
:1025000018C020E030E04CE552ECC501B4010E9457
:102510004D15181674F420E030E040E251E4C50196
:10252000B4010E94B1160E94C41505C068EB7BE09F
:1025300002C06CEC7BE0D8016D937D938D01D39448
:10254000B8E0EB0EF11CD71082CF60E083E10E946F
:102550002C0482E2E7ECF1E0D10101900D928A9522
:10256000E1F78BEF90E00E949A014AE06EE070E0A4
:1025700080E090E00E94BB01810189EF90E00E9421
:102580009A01F80161918F0170E080E090E04AE0EB
:102590000E94BB01CB56DF4FF881C559D040F013E4
:1025A000ECCF83EF90E00E949A0180E391E00E94DB
:1025B00088016AE070E080E090E00E94330760915B
:1025C000F9017091FA018091FB019091FC010E9448
:1025D000C4157093FE016093FD016091F501709147
:1025E000F6018091F7019091F8010E94C415709353
:1025F00000026093FF016091F1017091F2018091FE
:10260000F3019091F4010E94C4157093020260934B
:1026100001026091ED017091EE018091EF019091C6
:10262000F0010E94C415709304026093030220E03D
:1026300030E048EC52E46091E9017091EA01809148
:10264000EB019091EC010E94B1160E94C4157093A9
:1026500006026093050261E086E00E942C0462E0BD
:1026600070E080E090E00E94330760E086E00E9426
:102670002C0488E20E94A806807521F080E00E9468
:10268000A806F7CF81E00E94A806837E682F6C60C1
:1026900081E00E94C40660E085E20E94C4062296A2
:1026A0001FAE229762ED8FEF9FEF0E94DF06F82E9C
:1026B00000E022968FAD2297873008F06EC088E246
:1026C000CA56DF4F9883C659D0400E94A806CA5602
:1026D000DF4F9881C659D04087FDEBCF2296EFADF2
:1026E00022974E2F50E047305105D8F5FA01EC5CA7
:1026F000FF4F0C94C61422968FAD22978F5F2296BF
:102700008FAF22971EE030C022968FAD22978F5F49
:1027100022968FAF22971AE127C081E0800FE02F29
:10272000F0E0E350FE4F10818A31E9F422968FAD3C
:1027300022978F5F22968FAF22970AE115C01F2D37
:1027400001C0192F22968FAD22978F5F22968FAFEF
:1027500022970AC022968FAD22978F5F22968FAF65
:1027600022971AEA01C0082F22968FAD2297843053
:1027700028F4612F8F2D0E94DF06F82E612F80E054
:10278000CA56DF4F9883C659D0400E94C406CA5625
:10279000DF4F9881C659D0408CCF88E20E94A806AE
:1027A00083FFFBCF81E00E94A806827E682F6160D4
:1027B00081E00E94C40683B7817F83BF83B78160B5
:1027C00083BF889583B78E7F83BF05E010E068EEF6
:1027D00073E080E090E00E943307A8950150110952
:1027E000B1F70E94B5050C94A40A261115C067E044
:1027F000CE01C996CA56DF4F2883C659D0400E94E1
:10280000310221969FAD2197CA56DF4F2881C659C4
:10281000D040891709F4C7CD2F5F621608F4C3CDE5
:10282000ADCD10924B0210924A0288EE93E0A0E0E8
:10283000B0E080934C0290934D02A0934E02B0936F
:102840004F0282E191E0909349028093480285EC27
:1028500090E0909355028093540284EC90E0909322
:1028600057028093560280EC90E090935902809337
:10287000580281EC90E090935B0280935A0282ECC4
:1028800090E090935D0280935C0286EC90E09093E0
:102890005F0280935E0210926102109262021092B7
:1028A00063021092640260E085E00E947804EAE42A
:1028B000F2E0E491E093F802E6E3F2E0E491F0E084
:1028C000EE0FFF1FE95DFD4F859194919093FA0201
:1028D0008093F902109203031092050310920403EF
:1028E000E3E0F3E0129282E0EB3FF807D9F788E5E6
:1028F00091E09093F7028093F60288EF92E0909334
:10290000EB028093EA021092E9021092E50289E05C
:102910008093E60281E08093E7028093E8020895C5
:1029200097FB072E16F4009407D077FD09D00E947C
:10293000CC1407FC05D03EF4909581959F4F0895E7
:10294000709561957F4F0895A1E21A2EAA1BBB1BBB
:10295000FD010DC0AA1FBB1FEE1FFF1FA217B3076B
:10296000E407F50720F0A21BB30BE40BF50B661F81
:10297000771F881F991F1A9469F760957095809545
:1029800090959B01AC01BD01CF010895EE0FFF1F93
:102990000590F491E02D0994AA1BBB1B51E107C0DF
:1029A000AA1FBB1FA617B70710F0A61BB70B881FDF
:1029B000991F5A95A9F780959095BC01CD0108956E
:1029C0005058BB27AA270E94F8140C9472160E9434
:1029D000641638F00E946B1620F039F49F3F19F40A
:1029E00026F40C9461160EF4E095E7FB0C945B164C
:1029F000E92F0E94831658F3BA17620773078407FA
:102A0000950720F079F4A6F50C94A5160EF4E09540
:102A10000B2EBA2FA02D0B01B90190010C01CA0198
:102A2000A0011124FF27591B99F0593F50F4503E43
:102A300068F11A16F040A22F232F342F4427585F35
:102A4000F3CF469537952795A795F0405395C9F74D
:102A50007EF41F16BA0B620B730B840BBAF0915005
:102A6000A1F0FF0FBB1F661F771F881FC2F70EC0A4
:102A7000BA0F621F731F841F48F487957795679577
:102A8000B795F7959E3F08F0B0CF9395880F08F063
:102A90009927EE0F9795879508950E94371608F4A9
:102AA00081E008950E9466150C9472160E946B16C0
:102AB00058F00E94641640F029F45F3F29F00C940E
:102AC0005B1651110C94A6160C9461160E94831685
:102AD00068F39923B1F3552391F3951B550BBB274D
:102AE000AA2762177307840738F09F5F5F4F220F92
:102AF000331F441FAA1FA9F335D00E2E3AF0E0E889
:102B000032D091505040E695001CCAF72BD0FE2FD2
:102B100029D0660F771F881FBB1F26173707480766
:102B2000AB07B0E809F0BB0B802DBF01FF2793581E
:102B30005F4F3AF09E3F510578F00C945B160C9471
:102B4000A6165F3FE4F3983ED4F386957795679594
:102B5000B795F7959F5FC9F7880F911D9695879553
:102B600097F90895E1E0660F771F881FBB1F621772
:102B700073078407BA0720F0621B730B840BBA0B30
:102B8000EE1F88F7E09508950E94CB156894B11167
:102B90000C94A61608950E948B1688F09F5798F003
:102BA000B92F9927B751B0F0E1F0660F771F881F52
:102BB000991F1AF0BA95C9F714C0B13091F00E946C
:102BC000A516B1E008950C94A516672F782F8827D5
:102BD000B85F39F0B93FCCF3869577956795B39593
:102BE000D9F73EF490958095709561957F4F8F4F02
:102BF0009F4F0895E89409C097FB3EF49095809507
:102C0000709561957F4F8F4F9F4F9923A9F0F92FB2
:102C100096E9BB279395F695879577956795B79530
:102C2000F111F8CFFAF4BB0F11F460FF1BC06F5F16
:102C30007F4F8F4F9F4F16C0882311F096E911C028
:102C4000772321F09EE8872F762F05C0662371F049
:102C500096E8862F70E060E02AF09A95660F771F5D
:102C6000881FDAF7880F9695879597F90895990F39
:102C70000008550FAA0BE0E8FEEF16161706E80746
:102C8000F907C0F012161306E407F50798F0621B67
:102C9000730B840B950B39F40A2661F0232B242B3C
:102CA000252B21F408950A2609F4A140A6958FEF5B
:102CB000811D811D089597F99F6780E870E060E0AD
:102CC00008959FEF80EC089500240A9416161706C5
:102CD00018060906089500240A941216130614060D
:102CE00005060895092E0394000C11F4882352F070
:102CF000BB0F40F4BF2B11F460FF04C06F5F7F4F28
:102D00008F4F9F4F089557FD9058440F551F59F00E
:102D10005F3F71F04795880F97FB991F61F09F3FC8
:102D200079F087950895121613061406551FF2CFF1
:102D30004695F1DF08C0161617061806991FF1CF41
:102D400086957105610508940895E894BB27662768
:102D50007727CB0197F908950E94371608F48FEF73
:102D600008950E94C4160C9472160E94641638F0DE
:102D70000E946B1620F0952311F00C945B160C94B6
:102D8000611611240C94A6160E94831670F3959F69
:102D9000C1F3950F50E0551F629FF001729FBB2752
:102DA000F00DB11D639FAA27F00DB11DAA1F649FEE
:102DB0006627B00DA11D661F829F2227B00DA11DA1
:102DC000621F739FB00DA11D621F839FA00D611D27
:102DD000221F749F3327A00D611D231F849F600D48
:102DE000211D822F762F6A2F11249F5750409AF071
:102DF000F1F088234AF0EE0FFF1FBB1F661F771FFD
:102E0000881F91505040A9F79E3F510580F00C94C7
:102E10005B160C94A6165F3FE4F3983ED4F38695B8
:102E200077956795B795F795E7959F5FC1F7FE2B67
:102E3000880F911D9695879597F9089519F416F4C2
:102E40000C9461160C9464170E948B16B8F39923A6
:102E5000C9F3B6F39F57550B87FF0E9472170024E2
:102E6000A0E640EA900180585695979528F4805C3A
:102E7000660F771F881F20F026173707480730F4A2
:102E8000621B730B840B202931294A2BA6951794BA
:102E90000794202531254A2758F7660F771F881F8A
:102EA00020F026173707480730F4620B730B840BAA
:102EB000200D311D411DA09581F7B901842F915836
:102EC000880F9695879508959F3F31F0915020F493
:102ED000879577956795B795880F911D96958795F6
:102EE00097F9089591505040660F771F881FD2F7C9
:102EF000089581E090E0F8940C947E17F894FFCF49
:102F0000B404B404000000445E00BC00770100007B
:102F100000004C05B504E40493051505F30407050A
:102F200053657420626175643D3131353230300053
:102F30000D0A0044657465637465642054656D70A2
:102F40002053656E736F72733A2020004E6F2074A9
:102F5000656D70657261747572652073656E736FEF
:022F60007200FD
:00000001FF
