:100000000C94F5000C9494020C946D020C941D0158
:100010000C941D010C941D010C941D010C941D01E8
:100020000C941D010C941D010C941D010C941D01D8
:100030000C941D010C941D010C941D010C941D01C8
:100040000C94E2070C941D010C94E1020C94BB0289
:100050000C941D010C941D010C941D010C941D01A8
:100060000C941D010C941D0188048A048F049C04C7
:100070009E04A304A30420282D30290020004F4B08
:10008000200020282D30290020004F4B2000005E4A
:10009000BCE2613FDD83C29C7E20A3FD1F419DC366
:1000A000217FFCA2401E5F01E3BD3E6082DC237D18
:1000B0009FC1421CFEA0E1BF5D0380DE3C62BEE04A
:1000C000025CDF81633D7C22C09E1D43A1FF461878
:1000D000FAA427799BC584DA3866E5BB5907DB8526
:1000E0006739BAE406581947A5FB7826C49A653BD8
:1000F000D987045AB8E6A7F91B45C6987A24F8A60A
:10010000441A99C7257B3A6486D85B05E7B98CD237
:10011000306EEDB3510F4E10F2AC2F7193CD114FE5
:10012000ADF3702ECC92D38D6F31B2EC0E50AFF197
:10013000134DCE90722C6D33D18F0C52B0EE326CC9
:100140008ED0530DEFB1F0AE4C1291CF2D73CA94F7
:100150007628ABF517490856B4EA6937D58B5709A5
:10016000EBB536688AD495CB2977F4AA4816E9B757
:10017000550B88D6346A2B7597C94A14F6A8742A89
:10018000C896154BA9F7B6E80A54D7896B35000015
:1001900000002300260029000404040404040404CD
:1001A0000202020202020303030303030102040822
:1001B00010204080010204081020010204081020D1
:1001C00000000000240027002A0000000000250095
:1001D00028002B00000000080002010000030407B3
:1001E0000000000000000000C61411241FBECFEF65
:1001F000D8E0DEBFCDBF11E0A0E0B1E0EAE6F0E379
:1002000002C005900D92A432B107D9F722E0A4E212
:10021000B1E001C01D92AC3CB207E1F710E0C5EFC0
:10022000D0E004C02197FE010E947B15C43FD10796
:10023000C9F70E942C080C9433180C940000089500
:10024000CF92DF92EF92FF920F931F93CF93DF93A2
:100250006C017A018B01C0E0D0E0CE15DF0589F09A
:10026000D8016D918D01D601ED91FC910190F08145
:10027000E02DC6010995892B11F47E0102C021965B
:10028000ECCFC701DF91CF911F910F91FF90EF90BD
:10029000DF90CF900895089580E090E00895FC01EC
:1002A000538D448D252F30E0842F90E0821B930BDB
:1002B000541710F0CF96089501970895FC01918D81
:1002C000828D981761F0828DDF01A80FB11D5D96B8
:1002D0008C91928D9F5F9F73928F90E008958FEF26
:1002E0009FEF0895FC01918D828D981731F0828DDA
:1002F000E80FF11D858D90E008958FEF9FEF089531
:10030000FC01918D228D892F90E0805C9F4F821B94
:1003100091098F739927089585E092E00E948001EA
:1003200021E0892B09F420E0822F0895FC01848DBF
:10033000DF01A80FB11DA35ABF4F2C91848D90E00F
:1003400001968F739927848FA689B7892C93A089EA
:10035000B1898C9180648C93938D848D981306C0A1
:100360000288F389E02D80818F7D80830895EF924C
:10037000FF920F931F93CF93DF93EC0181E0888F5F
:100380009B8D8C8D981305C0E889F989808185FD46
:1003900024C0F62E0B8D10E00F5F1F4F0F73112737
:1003A000E02E8C8DE8120CC00FB607FCFACFE8895E
:1003B000F989808185FFF5CFCE010E949601F1CFAA
:1003C0008B8DFE01E80FF11DE35AFF4FF0820B8F7A
:1003D000EA89FB898081806207C0EE89FF8960839A
:1003E000E889F98980818064808381E090E0DF91F1
:1003F000CF911F910F91FF90EF900895CF93DF93CE
:10040000EC01888D8823C9F0EA89FB89808185FD0C
:1004100005C0A889B9898C9186FD0FC00FB607FC6D
:10042000F5CF808185FFF2CFA889B9898C9185FFAE
:10043000EDCFCE010E949601E7CFDF91CF910895D5
:1004400080E090E0892B29F00E948C0181110C94AE
:10045000000008958EBD00000DB407FEFDCF8EB5DF
:100460000895F8948CB5837F8CBD8CB58F7D8CBD41
:100470008CB58C7F8CBD8DB58E7F8DBD60E08AE0A4
:100480000C94FD060F931F930E94D607009125013F
:10049000109126012091270130912801DC01CB0128
:1004A000801B910BA20BB30B8F369105A105B105F3
:1004B00028F0809124018F5F809324010E94D60749
:1004C0006093250170932601809327019093280162
:1004D0001F910F9108950E942E181F920F920FB630
:1004E0000F9211242F933F934F935F936F937F93BA
:1004F0008F939F93AF93BF93EF93FF93E09102018C
:10050000F09103010995FF91EF91BF91AF919F91F8
:100510008F917F916F915F914F913F912F910F90AC
:100520000FBE0F901F9018951F920F920FB60F924B
:1005300011242F933F934F935F936F937F938F93E8
:100540009F93AF93BF93EF93FF93E0910001F091DE
:1005500001010995FF91EF91BF91AF919F918F910B
:100560007F916F915F914F913F912F910F900FBEAF
:100570000F901F9018951F920F920FB60F92112493
:100580002F933F934F935F936F937F938F939F939B
:10059000AF93BF93EF93FF9385E092E00E949601A3
:1005A000FF91EF91BF91AF919F918F917F916F914B
:1005B0005F914F913F912F910F900FBE0F901F9021
:1005C00018951F920F920FB60F9211242F938F93AD
:1005D0009F93EF93FF93E0911502F09116028081B3
:1005E000E0911B02F0911C0282FD12C0908180916B
:1005F0001E028F5F8F7320911F02821751F0E091CE
:100600001E02F0E0EB5FFD4F958F80931E0201C04C
:100610008081FF91EF919F918F912F910F900FBE4D
:100620000F901F9018951F93CF93DF931F92CDB714
:10063000DEB789830E94310289818F770E942A0266
:1006400080E00E942A02182F61E08AE00E94FD06E5
:100650007894812F0F90DF91CF911F910895CF93C0
:10066000DF9300D0CDB7DEB76A8389830E94310261
:10067000898180680E942A026A81862F0E942A024C
:1006800061E08AE00E94FD0678940F900F90DF9160
:10069000CF9108958627682F62956827062E669564
:1006A00066956025062E669560256770082E892F51
:1006B000669507946795902D8627069467959025F3
:1006C000862708950895FC0190810180F281E02D34
:1006D000892F809560FF12C0F89422818223828343
:1006E0008181892B8183A3E2B0E01197F1F78281A8
:1006F000982B9283789487ED90E011C0F894228132
:10070000822382838181892B8183AFEFB0E01197AF
:10071000F1F78281982B928378948FE090E0019793
:10072000F1F7089542E050E060E271E085E092E088
:100730000C9420010F931F93CF93DF938C01C0E0A3
:10074000D0E0F801EC0FFD1F6491662371F0E09199
:100750000502F09106020190F081E02D85E092E023
:100760000995892B11F02196ECCFCE01DF91CF9125
:100770001F910F9108958F929F92AF92BF920F9306
:100780001F93CF93DF93CDB7DEB7A1970FB6F89441
:10079000DEBF0FBECDBF19A2423008F44AE08E0181
:1007A0000F5D1F4F842E912CA12CB12CA50194011B
:1007B0000E945915E62FB901CA0101501109EA300A
:1007C00014F4E05D01C0E95CD801EC93232B242BE9
:1007D000252B61F70115110571F0F801019000203A
:1007E000E9F73197AF01401B510BB80185E092E06A
:1007F0000E94200102C080E090E0A1960FB6F8941C
:10080000DEBF0FBECDBFDF91CF911F910F91BF9083
:10081000AF909F908F900895CF92DF92EF92FF92CA
:10082000CF93DF936C01990FEE08FF08F7FE1FC00E
:10083000E0910502F09106020190F081E02D6DE259
:1008400085E092E00995EC0166277727CB016C19CA
:100850007D098E099F094AE00E94BB038C0F9D1FF2
:10086000DF91CF91FF90EF90DF90CF9008954AE015
:10087000C701B601DF91CF91FF90EF90DF90CF904D
:100880000C94BB03AF92BF92CF92DF92EF92FF9294
:100890000F931F93CF93DF9300D0CDB7DEB77C01CA
:1008A000C62E142F88E20E941303807521F080E089
:1008B0000E941303F7CF81E00E941303837E682F09
:1008C0006C6081E00E942F0360E085E20E942F03AC
:1008D000198262ED8FEF9FEF0E944A03B82ED12C50
:1008E0001F71A12E8981873008F042C088E29A8367
:1008F0000E9413039A8187FDF5CFE9810E2F10E046
:100900000730110518F5F801EC5CFF4F0C947B15CE
:100910001A2D15C089818F5F89831C2D1AC081E033
:100920008D0DF701ED0DF11D10818C1111C0898124
:100930008F5F8983DC2C0DC01B2D01C0192F89818D
:100940008F5F898306C089818F5F89831AEA01C01E
:10095000D82E8981843028F4612F8B2D0E944A0380
:10096000B82E612F80E09A830E942F039A81BACF1C
:1009700088E20E94130383FFFBCF81E00E941303F0
:10098000827E682F616081E00E942F0383B7817FA0
:1009900083BF83B7816083BF889583B78E7F83BF12
:1009A0000F900F90DF91CF911F910F91FF90EF90DB
:1009B000DF90CF90BF90AF900895DC01E0E06150F0
:1009C00038F08D91E827F0E0E257FF4FE491F7CF40
:1009D0008E2F0895CF92DF92EF92FF920F931F9385
:1009E000CF93DF931F92CDB7DEB76C01E62E08E000
:1009F00010E0FF24F39461E08F2D8E2109F460E074
:100A0000C60149830E946303FF0C0150110949810B
:100A10000115110581F7411115C0F894D601119601
:100A2000ED91FC91129791818C918095892381831E
:100A30001196ED91FC91129792818C91809589236A
:100A4000828378940F90DF91CF911F910F91FF9047
:100A5000EF90DF90CF900895CF92DF92EF92FF92C8
:100A60000F931F93CF93DF931F92CDB7DEB78C0107
:100A7000F62E40E065E579830E94EA04CF2C798167
:100A8000D72E760188E0E80EF11CF60161916F0126
:100A900040E0C8010E94EA04CE14DF04B1F70F90D1
:100AA000DF91CF911F910F91FF90EF90DF90CF904A
:100AB0000895FC0190810180F281E02DF8948181FC
:100AC000892B81832281892F809528232283A7E087
:100AD000B0E01197F1F7218182238183A3E2B0E096
:100AE0001197F1F780817894EFECF0E03197F1F70E
:100AF000982381E009F480E008958F929F92AF924D
:100B0000BF92CF92DF92EF92FF920F931F93CF93FA
:100B1000DF938C01EB018091A7029091A8020E94C3
:100B2000C706882309F43DC0B8018091A7029091BF
:100B3000A8020E942C0540E06EEB8091A7029091E4
:100B4000A8020E94EA048E015E0189E0A80EB11C91
:100B50008090A7029090A80288E0C82ED12CEE24A5
:100B6000E394F12CC4010E9459058111FE28EE0C7A
:100B7000E1E0CE1AD108B1F7F801F1928F01EA1540
:100B8000FB0531F78091A7029091A8020E94C70649
:100B9000813039F468E0CE010E94DD0491E02885BF
:100BA000821390E0892FDF91CF911F910F91FF90D9
:100BB000EF90DF90CF90BF90AF909F908F9008956F
:100BC000CF93DF93CDB7DEB729970FB6F894DEBF8A
:100BD0000FBECDBFFC0120812031D1F0BE016F5F7F
:100BE0007F4F0E947D05882389F08D818F3361F0CE
:100BF00020F48F3159F489E00CC08F3519F08F370C
:100C000039F004C08BE005C08AE003C080E001C079
:100C10008CE029960FB6F894DEBF0FBECDBFDF91F2
:100C2000CF910895AF92BF92CF92DF92EF92FF9251
:100C30000F931F93CF93DF931F92CDB7DEB75C0165
:100C4000D62EE72EFC018585811105C0C5010E94C5
:100C5000C706811106C0F50113861586148680E04B
:100C600065C040E060EFC5010E94EA0401E0F12C9C
:100C7000C12C11E0C5010E945905682FC501698387
:100C80000E9459056981613019F48130B9F433C08B
:100C90004F2D50E068131BC0F5018385181730F401
:100CA000E40FF51F8381802349F402C0181731F047
:100CB00060E0193058F4F501148708C0F501EF0D14
:100CC000F11D8381802B838361E009C0C12EF50172
:100CD000E40FF51F9381802F809589238383C501BD
:100CE0000E9463031F5F000F11F4F39401E0F7E02B
:100CF000FF1508F0BFCF113408F4ADCFF501C3865E
:100D0000C11002C081E08587F5018381882309F441
:100D1000A2CFD5011396ED2DFE2D9501255F3F4FF6
:100D20008D918193A217B307D9F781E00F90DF91DE
:100D3000CF911F910F91FF90EF90DF90CF90BF90D8
:100D4000AF9008953FB7F8948091C8029091C9027E
:100D5000A091CA02B091CB0226B5A89B05C02F3F37
:100D600019F00196A11DB11D3FBFBA2FA92F982FD1
:100D70008827820F911DA11DB11DBC01CD0142E04C
:100D8000660F771F881F991F4A95D1F70895FC01B8
:100D900090810180F281E02DF8948181292F2095A6
:100DA0008223818378948DE743E050E0815021F1E4
:100DB000DA011197F1F730813923C1F3F894828178
:100DC000822382838181892B81837894ABE7B7E08A
:100DD0001197F1F7F894818128232183A3E1B1E0F1
:100DE0001197F1F78081982381E009F080E07894F1
:100DF000E3E6F6E03197F1F7089590E0FC01EC525C
:100E0000FE4F3491FC01E455FE4F2491FC01E8565D
:100E1000FE4FE491EE2309F43BC0332339F1333024
:100E200091F038F43130A9F0323001F584B58F7D7E
:100E300012C0373091F03830A1F03430B9F48091DD
:100E400080008F7D03C0809180008F778093800029
:100E50000DC084B58F7784BD09C08091B0008F77B5
:100E600003C08091B0008F7D8093B000F0E0EE0F62
:100E7000FF1FE653FE4FA591B4918FB7F894EC9104
:100E8000611103C020952E2301C02E2B2C938FBF00
:100E90000895CF93DF9390E0FC01E455FE4F249139
:100EA000FC01E856FE4F8491882361F190E0880FA1
:100EB000991FFC01E054FE4FC591D491FC01E6530B
:100EC000FE4FA591B491611109C09FB7F894888134
:100ED000209582238883EC912E230BC0623061F42D
:100EE0009FB7F8943881822F809583238883EC9173
:100EF0002E2B2C939FBF06C08FB7F894E8812E2B22
:100F000028838FBFDF91CF9108958E3008F08E50E7
:100F10008770806480937C0080917A0080648093E5
:100F20007A0080917A0086FDFCCF80917800209134
:100F3000790090E0922B08958F929F92AF92BF928A
:100F4000CF92DF92EF92FF926B017C010E94A2068A
:100F50004B015C01C114D104E104F104F1F00E94E1
:100F6000A206DC01CB0188199909AA09BB09883EB0
:100F70009340A105B10570F321E0C21AD108E10840
:100F8000F10888EE880E83E0981EA11CB11CC114E4
:100F9000D104E104F10419F7DDCFFF90EF90DF9069
:100FA000CF90BF90AF909F908F9008952FB7F894F7
:100FB0006091C4027091C5028091C6029091C702EF
:100FC0002FBF08951F920F920FB60F9211242F93E7
:100FD0003F938F939F93AF93BF938091C40290915F
:100FE000C502A091C602B091C7023091C30223E0AE
:100FF000230F2D3720F40196A11DB11D05C026E851
:10100000230F0296A11DB11D2093C3028093C40239
:101010009093C502A093C602B093C7028091C80204
:101020009091C902A091CA02B091CB020196A11D74
:10103000B11D8093C8029093C902A093CA02B093D5
:10104000CB02BF91AF919F918F913F912F910F90C4
:101050000FBE0F901F901895CF93DF93CDB7DEB7DB
:10106000CB59D1090FB6F894DEBF0FBECDBF78942F
:1010700084B5826084BD84B5816084BD85B582609D
:1010800085BD85B5816085BD80916E00816080934E
:101090006E001092810080918100826080938100B7
:1010A00080918100816080938100809180008160C7
:1010B000809380008091B10084608093B100809122
:1010C000B00081608093B00080917A00846080934A
:1010D0007A0080917A00826080937A0080917A0011
:1010E000816080937A0080917A00806880937A0092
:1010F0001092C100E0911502F091160202E0008307
:10110000E0911102F09112021082E0911302F0912D
:1011100014028FEC808310921D02E0911902F0916D
:101120001A0216E01083E0911702F09118028081F4
:1011300080618083E0911702F091180280818860BD
:101140008083E0911702F09118028081806880838B
:10115000E0911702F091180280818F7D808385E0F5
:1011600092E00E94FE01E0911702F0911802808146
:101170008F7E8083E0911702F09118028081877F33
:101180008083E0911702F091180280818F7780832D
:10119000E0911702F091180280818F7D8083809109
:1011A0001F0280931E02E0911502F0911602008347
:1011B000E0911102F09112021082E0911302F0917D
:1011C000140280E1808310921D02E0911902F091D7
:1011D0001A021083E0911702F09118028081806159
:1011E0008083E0911702F0911802808188608083EB
:1011F000E0911702F0911802808180688083E0916D
:101200001702F091180280818F7D808399E288E136
:101210000FB6F894A895809360000FBE909360007D
:1012200061E08AE00E94FD0661E08AE00E944907D1
:101230001FB7F89480912901811127C0E2EAF1E0FB
:101240008491E6EBF1E09491E82FF0E0EE0FFF1FC0
:10125000E054FE4FA591B491EC91E92321F461E0B3
:101260008AE00E94FD0661E08AE00E9449078CB591
:1012700080618CBD8CB580648CBD61E08DE00E9486
:10128000490761E08BE00E944907809129018F5F47
:10129000809329011FBF8CB58F7D8CBD8CB5837F5A
:1012A0008CBD8CB58C7F81608CBD8DB581608DBD12
:1012B0006AEA8FE20E942F038FE20E9413038A3AA8
:1012C000B9F765E58FE20E942F038FE20E941303B6
:1012D0008535B9F764E081E00E942F0360E082E089
:1012E0000E942F0362E083E00E942F036AE884E0FB
:1012F0000E942F0365E085E00E942F0363EC86E0E7
:101300000E942F036CE687E00E942F0360E888E0CC
:101310000E942F0360E089E00E942F0369E981E1C8
:101320000E942F036CE28EE10E942F0360E885E2A9
:101330000E942F0363E086E20E942F0360E088E2B0
:101340000E942F0368E88EE20E942F036DE28FE275
:101350000E942F0362ED80E30E942F0360E087E389
:101360000E942F0380917E008F6380937E00809186
:101370007F00836080937F0061E086E00E944907E0
:1013800061E086E00E94FD0662E083E00E9449077A
:101390001092D0011092D1011092D2011092D3017B
:1013A00081E00E948507892B19F081E08093550127
:1013B00082E00E948507892B19F081E08093480123
:1013C00083E00E948507892B19F081E080933B011F
:1013D00084E00E948507892B19F081E080932E011B
:1013E00060E086E00E94FD0661E083E10E9449071B
:1013F00061E083E10E94FD0662E370E080E090E03E
:101400000E949C07E091A702F091A802138615861E
:101410001486DF011B9633961E92AE17BF07E1F7C5
:101420001092A60211E0BE016F5F7F4F8091A7026C
:101430009091A8020E941206882309F449C067E02F
:10144000CE0101960E94DD0498858913ECCF80912E
:10145000A202811126C08091A7029091A8020E9449
:10146000C706BE016F5F7F4F8091A7029091A802CF
:101470000E942C0540E064EB8091A7029091A802A5
:101480000E94EA048091A7029091A8020E94590547
:10149000082F8091A7029091A8020E94C7060023FE
:1014A000A9F10091A302CE0101960E94E0058017E8
:1014B00018F48091A30204C0CE0101960E94E005B9
:1014C0008093A3028091A6028F5F8093A602ABCF88
:1014D0001092A4028091A60280930402873018F033
:1014E00086E08093040210E080910402181788F4CB
:1014F00028E0129FB00111246C527E4F85EB92E0E0
:101500000E941206882329F01F5FEECF1093A202DB
:10151000C8CF82EC9BE09093C5018093C401909367
:10152000C7018093C6019093C9018093C80190932D
:10153000CB018093CA019093CD018093CC0190930D
:10154000CF018093CE0160E083E10E94FD0682E43A
:1015500092E09093030180930201809169008C6076
:1015600080936900E99A64E170E080E090E00E9475
:101570009C079E012F5F3F4F190138E1320DC55680
:10158000DF4F3883CB59D04080915601811117C06D
:1015900080915501811104C080E090E0DC0104C01D
:1015A00080E090E0A0E0B4E4809351019093520178
:1015B000A0935301B093540181E080935601809130
:1015C0004901811117C080914801811104C080E058
:1015D00090E0DC0104C080E090E0A0E0B4E48093FF
:1015E000440190934501A0934601B093470181E0E7
:1015F0008093490180913C01811117C080913B018A
:10160000811104C080E090E0DC0104C080E090E043
:10161000A0E0B4E48093370190933801A09339019E
:10162000B0933A0181E080933C0180912F018111B8
:1016300017C080912E01811104C080E090E0DC0190
:1016400004C080E090E0A0E0B4E480932A0190938D
:101650002B01A0932C01B0932D0181E080932F01E9
:101660000E94D6076B017C0180E00E948507CB5663
:10167000DF4F99838883C559D0400E94D607DC018B
:10168000CB018C199D09AE09BF09813D9740A10589
:10169000B10508F460C00E94D607C956DF4F6883C1
:1016A00079838A839B83C759D040E6961CAE1DAED2
:1016B0001EAE1FAEE697E2961CAE1DAE1EAE1FAE6E
:1016C000E297AE961CAE1DAE1EAE1FAEAE97AA96AA
:1016D0001CAE1DAE1EAE1FAEAA97A6961CAE1DAECA
:1016E0001EAE1FAEA697A2961CAE1DAE1EAE1FAEBE
:1016F000A2976E961CAE1DAE1EAE1FAE6E976A967A
:101700001CAE1DAE1EAE1FAE6A972E961CAE1DAE51
:101710001EAE1FAE2E97E7961FAEE797EB961FAE55
:10172000EB97EF961FAEEF97CE57DF4F1882C25858
:10173000D04060961FAE1EAE60974EEF5FEF64968E
:101740005FAF4EAF6497CC57DF4F1882C458D0407C
:101750000EE010E0C2C3CB56DF4F88819981C55996
:10176000D040815891408F3F910508F07DCF93CFB5
:1017700080E00E9485072C0181E00E9485073C01E2
:1017800082E00E948507C857DF4F99838883C85835
:10179000D04083E00E948507C457DF4F9983888338
:1017A000CC58D04084E00E948507C057DF4F998312
:1017B0008883C059D040B201052C000C880B990BCE
:1017C0000E94B1166B017C0180900401909005018C
:1017D000A0900601B0900701A50194010E94951503
:1017E00020E030E040E85AE30E9466179B01AC011C
:1017F000C501B4010E9496159B01AC0160930401E0
:10180000709305018093060190930701C701B6010B
:101810000E94951524966FAF249726967FAF269742
:1018200022968FAF229727969FAF2797C8016EE029
:1018300070E00E944515FC01EE0FFF1FEE0FFF1F29
:10184000E20DF31D24968FAD249726969FAD269723
:101850002296AFAD22972796BFAD279780839183BD
:10186000A283B38341E0CC56DF4F4883C459D040B4
:10187000CB56DF4F88819981C559D0408415950595
:101880002CF0CC56DF4F1882C459D040CC57DF4FD4
:101890009881C458D040CC56DF4FA881C459D0405D
:1018A0009A1709F449C064968EAD9FAD6497892B51
:1018B000D1F560961FAE1EAE6097E6961CAE1DAECB
:1018C0001EAE1FAEE697E2961CAE1DAE1EAE1FAE5C
:1018D000E297AE961CAE1DAE1EAE1FAEAE97AA9698
:1018E0001CAE1DAE1EAE1FAEAA97A6961CAE1DAEB8
:1018F0001EAE1FAEA697A2961CAE1DAE1EAE1FAEAC
:10190000A2976E961CAE1DAE1EAE1FAE6E976A9667
:101910001CAE1DAE1EAE1FAE6A972E961CAE1DAE3F
:101920001EAE1FAE2E976496AEADBFAD64971196F6
:101930006496BFAFAEAF6497B301770C880B990B79
:101940000E94B1166B017C01809051019090520170
:10195000A0905301B0905401A50194010E949515E7
:1019600020E030E040E85AE30E9466179B01AC019A
:10197000C501B4010E9496159B01AC016093510111
:10198000709352018093530190935401C701B601A3
:101990000E949515CC57DF4F688379838A839B8398
:1019A000C458D040C857DF4FE881F981C858D040AB
:1019B000BF01FF0F880B990B0E94B1166B017C01D0
:1019C0008090440190904501A0904601B09047015D
:1019D000A50194010E94951520E030E040E85AE30B
:1019E0000E9466179B01AC01C501B4010E949615C7
:1019F0009B01AC01609344017093450180934601C3
:101A000090934701C701B6010E949515C857DF4F53
:101A1000688379838A839B83C858D040C457DF4F3B
:101A200028813981CC58D040B901330F880B990BEC
:101A30000E94B1166B017C018090370190903801B3
:101A4000A0903901B0903A01A50194010E9495152A
:101A500020E030E040E85AE30E9466179B01AC01A9
:101A6000C501B4010E9496159B01AC01609337013A
:101A7000709338018093390190933A01C701B60100
:101A80000E9495152B013C01C057DF4F48815981B9
:101A9000C059D040BA01550F880B990B0E94B1165E
:101AA0006B017C0180902A0190902B01A0902C0169
:101AB000B0902D01A50194010E94951520E030E021
:101AC00040E85AE30E9466179B01AC01C501B401CE
:101AD0000E9496159B01AC0160932A0170932B0123
:101AE00080932C0190932D01C701B6010E9495159A
:101AF0006B017C0124962FAD249726963FAD269747
:101B000022964FAD229727965FAD279724966FAD0B
:101B1000249726967FAD269722968FAD22972796FB
:101B20009FAD27970E9466179B01AC012E966CAD66
:101B30007DAD8EAD9FAD2E970E9496152E966CAF03
:101B40007DAF8EAF9FAF2E97CC57DF4F2881398165
:101B50004A815B81C458D040CA01B9010E9466170E
:101B60009B01AC016A966CAD7DAD8EAD9FAD6A9761
:101B70000E9496156A966CAF7DAF8EAF9FAF6A9745
:101B8000C857DF4F288139814A815B81C858D040CE
:101B9000CA01B9010E9466179B01AC016E966CAD3B
:101BA0007DAD8EAD9FAD6E970E9496156E966CAF13
:101BB0007DAF8EAF9FAF6E97A3019201C301B201BB
:101BC0000E9466179B01AC01A2966CAD7DAD8EADF7
:101BD0009FADA2970E949615A2966CAF7DAF8EAF77
:101BE0009FAFA297A7019601C701B6010E94661791
:101BF0009B01AC01A6966CAD7DAD8EAD9FADA69759
:101C00000E949615A6966CAF7DAF8EAF9FAFA6973C
:101C1000E7962FADE797EB963FADEB97EF964FAD7D
:101C2000EF97CE57DF4F5881C258D04024966FAD02
:101C3000249726967FAD269722968FAD22972796DA
:101C40009FAD27970E949515C057DF4F6883798312
:101C50008A839B83C059D040C80107976EE070E02B
:101C60000E944515FC01EE0FFF1FEE0FFF1FE20D56
:101C7000F31D80819181A281B381C457DF4F888396
:101C80009983AA83BB83CC58D040C8010D976EE0DE
:101C900070E00E944515FC01EE0FFF1FEE0FFF1FC5
:101CA000E20DF31D80809180A280B380C057DF4F8A
:101CB000288139814A815B81C059D040E7966FAD58
:101CC000E797EB967FADEB97EF968FADEF97CE57FB
:101CD000DF4F9881C258D0400E949615CC57DF4FF5
:101CE000288139814A815B81C458D0400E9466179F
:101CF0009B01AC01AA966CAD7DAD8EAD9FADAA9750
:101D00000E949615AA966CAF7DAF8EAF9FAFAA9733
:101D1000C80106976EE070E00E944515FC01EE0FC9
:101D2000FF1FEE0FFF1FE20DF31DC457DF4F288189
:101D300039814A815B81CC58D04060817181828138
:101D400093810E9495152FE135E84BE65FE30E94F1
:101D500066179B01AC01C457DF4F688179818A8186
:101D60009B81CC58D0400E949615C857DF4F2881E0
:101D700039814A815B81C858D0400E9466179B0117
:101D8000AC01AE966CAD7DAD8EAD9FADAE970E94B1
:101D90009615AE966CAF7DAF8EAF9FAFAE97C80174
:101DA0000C976EE070E00E944515FC01EE0FFF1FDE
:101DB000EE0FFF1FE20DF31DA501940160817181FB
:101DC000828193810E94951523E333E343E75FE328
:101DD0000E9466179B01AC01C501B4010E949615D3
:101DE000A30192010E9466179B01AC01E2966CADC3
:101DF0007DAD8EAD9FADE2970E949615E2966CAFD9
:101E00007DAF8EAF9FAFE2972AE939E949E95FE3F9
:101E1000C057DF4F688179818A819B81C059D0404A
:101E20000E9466179B01AC01E7966FADE797EB96B2
:101E30007FADEB97EF968FADEF97CE57DF4F988141
:101E4000C258D0400E949615A70196010E946617BD
:101E50009B01AC01E6966CAD7DAD8EAD9FADE69776
:101E60000E949615E6966CAF7DAF8EAF9FAFE6975A
:101E70006096AEADBFAD609711966096BFAFAEAF46
:101E800060970F5F1F4F6496EEADFFAD6497769736
:101E9000D4F52496FFAD2497E796FFAFE7972696F3
:101EA0002FAD2697EB962FAFEB9722963FAD22975B
:101EB000EF963FAFEF9727964FAD2797CE57DF4F5F
:101EC0004883C258D040CC56DF4F5881C459D040C7
:101ED000CC57DF4F5883C458D0400E94D607DC014E
:101EE000CB01C956DF4F288139814A815B81C759AF
:101EF000D040821B930BA40BB50B803D9740A105EE
:101F0000B10508F435CC6096EEADFFAD6097BF012A
:101F1000FF0F880B990B0E94B1166B017C019B018E
:101F2000AC012E966CAD7DAD8EAD9FAD2E970E940F
:101F300007160E94D91729EE39E04EE45FE30E94AC
:101F400066174B015C016093A6017093A701809313
:101F5000A8019093A901A70196016A966CAD7DAD89
:101F60008EAD9FAD6A970E9407160E94D91721E691
:101F70003FE147E95EE30E9466172A966CAF7DAFAA
:101F80008EAF9FAF2A9760937A0170937B01809305
:101F90007C0190937D01A70196016E966CAD7DAD9D
:101FA0008EAD9FAD6E970E9407160E94D91721E64D
:101FB0003FE147E95EE30E9466172E966CAF7DAF66
:101FC0008EAF9FAF2E9760937601709377018093C9
:101FD000780190937901A7019601A2966CAD7DAD31
:101FE0008EAD9FADA2970E9407160E94D91721E6D9
:101FF0003FE147E95EE30E94661762966CAF7DAFF2
:102000008EAF9FAF6297609372017093730180935C
:10201000740190937501A7019601A6966CAD7DADF4
:102020008EAD9FADA6970E9407160E94D9172EE885
:102030003EE940E65DE30E94661766966CAF7DAFB1
:102040008EAF9FAF669760936E0170936F01809320
:1020500070019093710123E332E443E75EE3AA96B3
:102060006CAD7DAD8EAD9FADAA970E946617A7019E
:1020700096010E9407166A966CAF7DAF8EAF9FAF38
:102080006A976093B6017093B7018093B8019093FB
:10209000B9012A962CAD3DAD4EAD5FAD2A97C50175
:1020A000B4010E9466176E966CAF7DAF8EAF9FAF86
:1020B0006E976093A2017093A3018093A401909303
:1020C000A5019B01AC016A966CAD7DAD8EAD9FAD57
:1020D0006A970E940716EA966CAF7DAF8EAF9FAFEE
:1020E000EA9760936A0170936B0180936C019093FF
:1020F0006D0123E332E443E75EE3AE966CAD7DAD64
:102100008EAD9FADAE970E946617A70196010E9403
:102110000716A2966CAF7DAF8EAF9FAFA29760936C
:10212000B2017093B3018093B4019093B5012E96E0
:102130002CAD3DAD4EAD5FAD2E97C501B4010E94F3
:102140006617A6966CAF7DAF8EAF9FAFA6976093D4
:1021500086017093870180938801909389019B0188
:10216000AC01A2966CAD7DAD8EAD9FADA2970E94E5
:102170000716EE966CAF7DAF8EAF9FAFEE97609374
:10218000660170936701809368019093690123E36E
:1021900032E443E75EE3E2966CAD7DAD8EAD9FAD7C
:1021A000E2970E946617A70196010E940716AA9659
:1021B0006CAF7DAF8EAF9FAFAA976093AE01709367
:1021C000AF018093B0019093B10162962CAD3DAD0B
:1021D0004EAD5FAD6297C501B4010E946617AE9621
:1021E0006CAF7DAF8EAF9FAFAE976093820170935F
:1021F000830180938401909385019B01AC01AA9691
:102200006CAD7DAD8EAD9FADAA970E940716C258EA
:10221000DF4F688379838A839B83CE57D040609356
:10222000620170936301809364019093650128E4D7
:1022300038EC44E35DE3E6966CAD7DAD8EAD9FADCD
:10224000E6970E946617A70196010E9407162B01C8
:102250003C016093AA017093AB018093AC01909311
:10226000AD0166962CAD3DAD4EAD5FAD6697C50137
:10227000B4010E946617E2966CAF7DAF8EAF9FAF40
:10228000E29760937E0170937F0180938001909329
:1022900081019B01AC01C301B2010E940716E696C1
:1022A0006CAF7DAF8EAF9FAFE69760935E0170938A
:1022B0005F018093600190936101F0910402269682
:1022C000FFAF2697FF2309F4C3C161E083E10E94B9
:1022D000FD0662E370E080E090E00E949C0744ED20
:1022E00051E025965FAF4EAF25978A0123961FAE2A
:1022F0001EAE239726963FAD2697232F30E0CE576C
:10230000DF4F39832883C258D04023962EAD3FAD8E
:102310002397CE57DF4F48815981C258D0402417A8
:1023200035070CF0C1C0C8010E94E0058B3009F4EC
:10233000AEC0B101C8010E947D05882309F4A7C081
:10234000D8018C91803109F4A2C0BFE5BD83809192
:10235000A7029091A8020E94C706B8018091A70227
:102360009091A8020E942C0540E06EE48091A702A3
:102370009091A8020E94EA0440E06B818091A7023C
:102380009091A8020E94EA0440E06C818091A7022B
:102390009091A8020E94EA04F8018081803141F006
:1023A00040E06D818091A7029091A8020E94EA040A
:1023B0008091A7029091A8020E94C706B80180915F
:1023C000A7029091A8020E942C054091A20268E405
:1023D0008091A7029091A8020E94EA0464E170E053
:1023E00080E090E00E949C078091A202882331F057
:1023F0006AE070E080E090E00E949C078091A70274
:102400009091A8020E94C7068091A3028C3020F40C
:10241000FBE0F093A3023BC02BE02093A302C12C6E
:10242000D12C8091A60290E0C816D90684F5FC2C28
:10243000E091A702F091A802138615861486DF01A9
:102440001B9633961E92AE17BF07E1F7E12CBE0133
:10245000675C7F4F8091A7029091A8020E941206AC
:10246000811182C2F090A302CE01C9960E94E005BC
:102470008F1518F48091A30204C0CE01C9960E9462
:10248000E0058093A3023FEFC31AD30ACACF239675
:102490002EAD3FAD23972F5F3F4F23963FAF2EAF1B
:1024A0002397085F1F4F31CF8091A7029091A80218
:1024B0000E94C70640E06CEC8091A7029091A802B0
:1024C0000E94EA044091A20264E48091A7029091E4
:1024D000A8020E94EA048091A4028823A9F0E09156
:1024E000A302E950E33040F4F0E0EE0FFF1FE85F95
:1024F000FE4F6081718102C06EEE72E0072E000C0B
:10250000880B990B0E949C0767E771E080E090E0E0
:102510000E949C0784EC91E023969FAF8EAF239797
:1025200010E0B10125968EAD9FAD25970E947D05E7
:10253000882379F1698198E0699FB00111248A812B
:10254000282F30E0322F2227330F330F330F262B63
:10255000372B2596AEADBFAD25978C918031E1F438
:10256000688570E08F81FB01E81BF109CF0196952A
:10257000982F8827979587950E9445156051710976
:10258000207F53E0220F331F5A95E1F7620F731F2C
:1025900004C060E874EE01C0B9016138F4EE7F0751
:1025A000ACF1072E000C880B990B0E94B11620E0AD
:1025B00030E040E05CE30E9466176B017C0120E0A4
:1025C00030E04EEF52EC0E9402168823F9F020E032
:1025D00030E04AEF52E4C701B6010E94611787FF5D
:1025E00018C020E030E04CE552ECC701B6010E9473
:1025F0000216181674F420E030E040E251E4C701FE
:10260000B6010E9466170E94791605C068EB7BE050
:1026100002C06CEC7BE02396AEADBFAD23976D930B
:102620007D932396BFAFAEAF23971F5F2596EEAD88
:10263000FFAD259738962596FFAFEEAF25972696E6
:10264000FFAD26971F136DCF60E083E10E94FD066A
:102650006A966CAD7DAD8EAD9FAD6A970E9479167E
:102660007093BB016093BA01A2966CAD7DAD8EAD47
:102670009FADA2970E9479167093BD016093BC0133
:10268000AA966CAD7DAD8EAD9FADAA970E947916CE
:102690007093BF016093BE01C301B2010E9479161D
:1026A0007093C1016093C00120E030E048EC52E437
:1026B000C501B4010E9466170E9479167093C30188
:1026C0006093C2016E966CAD7DAD8EAD9FAD6E9781
:1026D0000E94791670938B0160938A01A6966CAD67
:1026E0007DAD8EAD9FADA6970E94791670938D013A
:1026F00060938C01AE966CAD7DAD8EAD9FADAE9707
:102700000E94791670938F0160938E01E2966CADF2
:102710007DAD8EAD9FADE2970E94791670939101C9
:102720006093900120E030E048EC52E42A966CADD2
:102730007DAD8EAD9FAD2A970E9466170E947916D7
:10274000709393016093920120E030E048EC52E4F2
:102750002E966CAD7DAD8EAD9FAD2E970E94661707
:102760000E947916709395016093940120E030E007
:1027700048EC52E462966CAD7DAD8EAD9FAD629734
:102780000E9466170E9479167093970160939601D4
:1027900020E030E048EC52E466966CAD7DAD8EAD45
:1027A0009FAD66970E9466170E94791670939901F3
:1027B0006093980120E030E040E251E4EA966CAD8D
:1027C0007DAD8EAD9FADEA970E9466170E94791687
:1027D00070939B0160939A0120E030E040E251E465
:1027E000EE966CAD7DAD8EAD9FADEE970E946617F7
:1027F0000E94791670939D0160939C0120E030E067
:1028000040E251E4C258DF4F688179818A819B811F
:10281000CE57D0400E9466170E94791670939F0190
:1028200060939E0120E030E040E251E4E6966CAD1A
:102830007DAD8EAD9FADE6970E9466170E9479161A
:102840007093A1016093A00161E086E00E94FD0603
:1028500062E070E080E090E00E949C0760E086E02B
:102860000E94FD064BE06AE18AEB91E00E9442047F
:1028700062E370E080E090E00E949C074FE068E136
:102880008AE891E00E9442048AE1EAEBF1E0D1019A
:1028900001900D928A95E1F78EE790E00E949A03ED
:1028A0008BE090E00E940C0481019AE1F92EF20C79
:1028B0008CE790E00E949A03D8016D918D0170E041
:1028C00080E090E04AE00E94BB03F012F1CF86E77F
:1028D00090E00E949A030E9492036AE070E080E018
:1028E00090E00E949C0788E1EAE8F1E0D1010190C4
:1028F0000D928A95E1F78AE890E00E949A038FE0B2
:1029000090E00E940C04810188E890E00E949A0304
:10291000F80161918F0170E080E090E04AE00E9450
:10292000BB03C556DF4FF881CB59D040F013ECCF35
:1029300082E890E00E949A030E9492036AE070E0AD
:1029400080E090E00E949C0705E010E068EE73E0F4
:1029500080E090E00E949C07A89501501109B1F712
:102960000E9420020C94C40AEF100BC067E0CE0155
:10297000C9960E94DD0421969FAD2197891709F41D
:1029800071CDE394FE1408F46DCD61CD1092080270
:102990001092070288EE93E0A0E0B0E08093090275
:1029A00090930A02A0930B02B0930C0282E191E093
:1029B000909306028093050285EC90E090931202BA
:1029C0008093110284EC90E09093140280931302A0
:1029D00080EC90E0909316028093150281EC90E0D9
:1029E000909318028093170282EC90E090931A0261
:1029F0008093190286EC90E090931C0280931B0256
:102A000010921E0210921F021092200210922102B8
:102A100060E085E00E944907E1EBF1E0E491E0939A
:102A2000B502EDE9F1E0E491F0E0EE0FFF1FE257AF
:102A3000FE4F859194919093B7028093B6021092C5
:102A4000C0021092C2021092C102E0ECF2E01292B7
:102A500082E0E83BF807D9F782E693E09093B4026E
:102A60008093B30285EB92E09093A8028093A70233
:102A70001092A6021092A20289E08093A30281E044
:102A80008093A4028093A502089597FB072E16F465
:102A9000009407D077FD09D00E94811507FC05D06E
:102AA0003EF4909581959F4F0895709561957F4F65
:102AB0000895A1E21A2EAA1BBB1BFD010DC0AA1F7F
:102AC000BB1FEE1FFF1FA217B307E407F50720F097
:102AD000A21BB30BE40BF50B661F771F881F991F12
:102AE0001A9469F760957095809590959B01AC015B
:102AF000BD01CF010895EE0FFF1F0590F491E02D69
:102B00000994AA1BBB1B51E107C0AA1FBB1FA61734
:102B1000B70710F0A61BB70B881F991F5A95A9F786
:102B200080959095BC01CD0108955058BB27AA27E8
:102B30000E94AD150C9427170E94191738F00E94B7
:102B4000201720F039F49F3F19F426F40C9416173F
:102B50000EF4E095E7FB0C941017E92F0E9438174C
:102B600058F3BA17620773078407950720F079F4C2
:102B7000A6F50C945A170EF4E0950B2EBA2FA02D43
:102B80000B01B90190010C01CA01A0011124FF271A
:102B9000591B99F0593F50F4503E68F11A16F04015
:102BA000A22F232F342F4427585FF3CF4695379514
:102BB0002795A795F0405395C9F77EF41F16BA0BD9
:102BC000620B730B840BBAF09150A1F0FF0FBB1F87
:102BD000661F771F881FC2F70EC0BA0F621F731FD0
:102BE000841F48F4879577956795B795F7959E3F2D
:102BF00008F0B0CF9395880F08F09927EE0F9795BE
:102C0000879508950E94EC1608F481E008950E94CB
:102C10001B160C9427170E94201758F00E941917B2
:102C200040F029F45F3F29F00C94101751110C94D7
:102C30005B170C9416170E94381768F39923B1F3A9
:102C4000552391F3951B550BBB27AA2762177307D2
:102C5000840738F09F5F5F4F220F331F441FAA1F66
:102C6000A9F335D00E2E3AF0E0E832D09150504022
:102C7000E695001CCAF72BD0FE2F29D0660F771FD0
:102C8000881FBB1F261737074807AB07B0E809F0B6
:102C9000BB0B802DBF01FF2793585F4F3AF09E3F3B
:102CA000510578F00C9410170C945B175F3FE4F318
:102CB000983ED4F3869577956795B795F7959F5F7E
:102CC000C9F7880F911D9695879597F90895E1E0CA
:102CD000660F771F881FBB1F621773078407BA0729
:102CE00020F0621B730B840BBA0BEE1F88F7E09584
:102CF00008950E9480166894B1110C945B17089592
:102D00000E94401788F09F5798F0B92F9927B75124
:102D1000B0F0E1F0660F771F881F991F1AF0BA957F
:102D2000C9F714C0B13091F00E945A17B1E008956C
:102D30000C945A17672F782F8827B85F39F0B93F5E
:102D4000CCF3869577956795B395D9F73EF4909532
:102D50008095709561957F4F8F4F9F4F0895E894B0
:102D600009C097FB3EF490958095709561957F4FD3
:102D70008F4F9F4F9923A9F0F92F96E9BB27939581
:102D8000F695879577956795B795F111F8CFFAF491
:102D9000BB0F11F460FF1BC06F5F7F4F8F4F9F4FC2
:102DA00016C0882311F096E911C0772321F09EE820
:102DB000872F762F05C0662371F096E8862F70E086
:102DC00060E02AF09A95660F771F881FDAF7880F60
:102DD0009695879597F90895990F0008550FAA0BB6
:102DE000E0E8FEEF16161706E807F907C0F012161E
:102DF0001306E407F50798F0621B730B840B950B21
:102E000039F40A2661F0232B242B252B21F4089575
:102E10000A2609F4A140A6958FEF811D811D089512
:102E200097F99F6780E870E060E008959FEF80EC7D
:102E3000089500240A941616170618060906089520
:102E400000240A9412161306140605060895092E86
:102E50000394000C11F4882352F0BB0F40F4BF2BF5
:102E600011F460FF04C06F5F7F4F8F4F9F4F089535
:102E700057FD9058440F551F59F05F3F71F047952B
:102E8000880F97FB991F61F09F3F79F08795089510
:102E9000121613061406551FF2CF4695F1DF08C02F
:102EA000161617061806991FF1CF8695710561054C
:102EB00008940895E894BB2766277727CB0197F9F4
:102EC00008950E94EC1608F48FEF08950E94791778
:102ED0000C9427170E94191738F00E94201720F031
:102EE000952311F00C9410170C94161711240C94C0
:102EF0005B170E94381770F3959FC1F3950F50E050
:102F0000551F629FF001729FBB27F00DB11D639F9B
:102F1000AA27F00DB11DAA1F649F6627B00DA11D41
:102F2000661F829F2227B00DA11D621F739FB00DE7
:102F3000A11D621F839FA00D611D221F749F332757
:102F4000A00D611D231F849F600D211D822F762FF0
:102F50006A2F11249F5750409AF0F1F088234AF0CD
:102F6000EE0FFF1FBB1F661F771F881F9150504039
:102F7000A9F79E3F510580F00C9410170C945B1735
:102F80005F3FE4F3983ED4F3869577956795B795C0
:102F9000F795E7959F5FC1F7FE2B880F911D9695DA
:102FA000879597F9089519F416F40C9416170C9454
:102FB00019180E944017B8F39923C9F3B6F39F5725
:102FC000550B87FF0E9427180024A0E640EA9001D5
:102FD00080585695979528F4805C660F771F881F58
:102FE00020F026173707480730F4621B730B840B59
:102FF000202931294A2BA69517940794202531259D
:103000004A2758F7660F771F881F20F026173707C3
:10301000480730F4620B730B840B200D311D411DEA
:10302000A09581F7B901842F9158880F96958795BF
:1030300008959F3F31F0915020F4879577956795DB
:10304000B795880F911D9695879597F9089591509A
:103050005040660F771F881FD2F7089581E090E0F7
:0A306000F8940C943318F894FFCF95
:10306A001F011F01000000445E00BC007701000040
:10307A000000B70120014F01FE0180015E017201CB
:04308A000D0A00002B
:00000001FF
